:100000005CC0000082C0000080C000007EC0000014
:100010007CC000007AC0000078C0000076C00000FC
:1000200074C0000072C0000070C000006EC000000C
:100030006CC000000C94EC2368C0000066C0000097
:100040000C94ED2762C000000C94A42A0C94D62ACC
:100050005CC000005AC0000058C0000056C000003C
:1000600054C0000052C0000000000008000201005F
:100070000003040700000000000000000102040863
:100080001020408001020408102001020408102002
:10009000040404040404040402020202020203032E
:1000A0000303030300000000250028002B000000CC
:1000B0000000240027002A00FB2A11241FBECFEFD6
:1000C000D8E0DEBFCDBF11E0A0E0B1E0EAE7F7E5A0
:1000D00002C005900D92A43DB107D9F725E0A4ED2B
:1000E000B1E001C01D92AB32B207E1F710E0CDE5FF
:1000F000D0E004C02197FE010E948C2BCC35D107A3
:10010000C9F70E9403250C94BB2B7ACFCF93DF93C2
:10011000882349F0EB0181500E94CD289983888380
:10012000DF91CF910895FB0111821082F9CF0F93D7
:100130001F938B019C0183E03695279517950795B2
:100140008A95D1F70C521E4F462F477021E030E0C0
:10015000F90102C0EE0FFF1F4A95E2F7AF01F80167
:1001600020812423CB010196211102C090E080E080
:100170001F910F9108950F931F938B019C0183E0B2
:1001800036952795179507958A95D1F7677081E081
:1001900090E001C0880F6A95EAF7F801EC52FE4F33
:1001A0002081452B31F48095822380831F910F910C
:1001B0000895822BFACFCF92DF92EF92FF92CF93E6
:1001C000DF936B017C0160E08EE0C816D104E1048E
:1001D000F10490F48EE08C0D0E941129E601219625
:1001E000AE01C701B601C7DFCE01DF91CF91FF900D
:1001F000EF90DF90CF9008958C2DEECF882341F0C3
:100200008150682F70E090E080E050E040E0B3CF94
:100210000895611102C00C9411296130E1F362E08C
:10022000FACF662319F061E00C944D2960E0FCCF11
:1002300090E080E008950F931F93009709F487C022
:100240006115710509F483C0009116011091170121
:1002500020911801309119010E3F1F4F2F4F3F4F32
:1002600009F066C04FEF5FEFBA014093160150935B
:100270001701609318017093190140911601509174
:1002800017016091180170911901DC011296ED912E
:10029000FC9180819181A281B38180934B029093E4
:1002A0004C02A0934D02B0934E0284819581A681A9
:1002B000B7818093470290934802A0934902B0937C
:1002C0004A0280859185A285B385809343029093ED
:1002D0004402A0934502B093460284859585A68585
:1002E000B78580933F0290934002A0934102B09360
:1002F000420210923B0210923C0210923D02109278
:100300003E0273D68AE198E09093DE018093DD018E
:100310009093E0018093DF0157D5009731F421E0FD
:1003200030E03093500220934F021F910F910895B7
:1003300000911601109117012091180130911901B7
:10034000DB010D931D932D933C93139796CF8FEF65
:100350009FEFEBCF8F929F92AF92BF92CF92DF929F
:10036000EF92FF921F93CF93DF934B015C011091AB
:10037000520282E090E09093500280934F028114E9
:100380009104A104B10441F480915202811104C08E
:1003900080915102C1E08111C0E0C12CD12C7601C5
:1003A00080915202811106C080915102811102C0D8
:1003B000CC23D9F083E090E09093500280934F02D9
:1003C000CC2379F1CCE9DFEF111102C00E947E0B42
:1003D000CE01DF91CF911F91FF90EF90DF90CF90F2
:1003E000BF90AF909F908F9008956AE070E080E09A
:1003F00090E00E945C2880E1C80E87E2D81EE11CD4
:10040000F11C8FEF88169806A806B80631F0C1E0F7
:100410008C149D04AE04BF0408F0C0E080E008D551
:10042000BFCFD0E0C0E0D0CFCF92DF92EF92FF926B
:100430000F931F93CF93DF938F3F910511F008F037
:1004400050C020914F02309150022330310539F0D5
:1004500020914F02309150022130310531F424E0D7
:1004600030E03093500220934F026A017B01EC018F
:1004700082309105A0F011E0AE01C701B601A3D40E
:10048000AB01BC01CE011123F9F0DF91CF911F9197
:100490000F91FF90EF90DF90CF900C94A70D8C01FF
:1004A000000F111F03521E4FD8018D919C91892B73
:1004B00011F30E94B10D0297F1F6D801ED91FC9174
:1004C000CE010995182FD8CF0E94C90D90E080E089
:1004D000DF91CF911F910F91FF90EF90DF90CF9020
:1004E00008958FEF9FEFF4CF80E0A2C4CF93DF9306
:1004F00086E090E09093500280934F02F2D4EC019A
:10050000EDEDF1E084E0DF011D928A95E9F70E94AC
:10051000160B1092500210924F02CE01DF91CF9134
:10052000089580915102089580913A020895609350
:10053000160170931701809318019093190190E0B0
:1005400080E0089560E070E080E89FE7089560E053
:1005500070E080E89FE7089560E070E080E89FEF3A
:10056000089560E070E080E89FEF089560E070E03B
:1005700080EC9FEF089560E070E080EC9FEF0895BD
:10058000F5DF6093F1047093F2048093F304909389
:10059000F404F1DF6093E5047093E6048093E704CC
:1005A0009093E804CFDF6093ED047093EE048093A2
:1005B000EF049093F004CBDF6093E9047093EA04B6
:1005C0008093EB049093EC04C7DF6093F504709381
:1005D000F6048093F7049093F804C3DF6093F90462
:1005E0007093FA048093FB049093FC040895CF92D7
:1005F000DF92EF92FF92CF936B017C01AC019B01E4
:100600006091ED047091EE048091EF049091F004FC
:100610000E940326C1E0882371F0A7019601609132
:10062000F5047091F6048091F7049091F8040E940B
:1006300003268111C0E08C2FCF91FF90EF90DF90C7
:10064000CF9008950F931F938B019C0100271127D2
:1006500020783F770115110520483F4749F4AB0149
:10066000BC016F77772781E0452B462B472B09F498
:1006700080E01F910F910895E5CFCF92DF92EF9226
:10068000FF926B017C019F7720E030E040E859E564
:100690000E94032687FF2BC020E030E040E05FE3AC
:1006A000C701B6010E94862787FD0EC020E030E01A
:1006B00040E05FE3C701B6010E948C25FF90EF90F8
:1006C000DF90CF900C94702620E030E040E05FEBAC
:1006D000C701B6010E948627181684F420E030E096
:1006E000A901C701B6010E948A276B017C01C701DD
:1006F000B601FF90EF90DF90CF90089520E030E0BA
:1007000040E05FE3C701B6010E948B25FF90EF90A8
:10071000DF90CF900C94F0254F925F926F927F9272
:100720008F929F92AF92BF92CF92DF92EF92FF9201
:10073000CF93DF9300D0CDB7DEB7C0901305D09034
:100740001405E0901505F0901605C701B6010E944A
:1007500035262B013C0120910C0130910D01409177
:100760000E0150910F010E94032687FF46C1F7FC3E
:1007700044C18090040190900501A0900601B090C2
:10078000070120E030E040E85FE3609108017091EC
:10079000090180910A0190910B010E948B259B0118
:1007A000AC01C301B2010E94862787FD2AC11092C5
:1007B000130510921405109215051092160520E0ED
:1007C00030E040E05BE4C501B4010E948A270E944A
:1007D00070266B017C0150DF811121C1C701B60178
:1007E00006DF81111CC120E030E040E85FE4C70172
:1007F000B6010E948A266B017C0120E030E0A9014D
:100800000E94032687FF0EC1C701B60190580E94BF
:10081000072690958095709561957F4F8F4F9F4FDC
:100820006093190570931A0580931B0590931C051E
:10083000C0900001D0900101E0900201F09003010E
:10084000A701960160910505709106058091070545
:10085000909108050E940326882341F0C092050567
:10086000D0920605E0920705F09208056EE070E070
:1008700080E090E05CDC909304058093030543E006
:1008800050E0BE016F5F7F4F41DC20911401309139
:100890001501A981BA810E94922B60931D05709366
:1008A0001E0580931F0590932005C0901905D090D8
:1008B0001A05E0901B05F0901C05C0922105D0920E
:1008C0002205E0922305F09224056093250570939C
:1008D00026058093270590932805C501B401CDDE38
:1008E0006B017C0120E030E040E853E40E940326E5
:1008F0006FEF87FF0EC020E030E0A901C701B6010D
:100900000E94862760E087FD04C0C701B6010E94EF
:10091000072689E086DCC0900D02D0900E02E090A0
:100920000F02F09010028FEFC81AD80AE80AF80AEE
:10093000C0920D02D0920E02E0920F02F0921002CD
:10094000C114D104E104F10499F480911102909151
:100950001202A0911302B09114020196A11DB11DC3
:100960008093110290931202A0931302B093140289
:100970008090150290901602A0901702B090180275
:1009800060911102709112028091130290911402F1
:100990000E943326A50194010E948A2720E030E0BE
:1009A00040E85FE40E948A272B013C01C701B601A1
:1009B0000E943326A50194010E948A279B01AC0165
:1009C000C301B2010E948C256093090270930A0250
:1009D00080930B0290930C020F900F90DF91CF91B8
:1009E000FF90EF90DF90CF90BF90AF909F908F904F
:1009F0007F906F905F904F900895812C912C5401BF
:100A0000C0CE8FEFC81AD80AE80AF80AC0921305B8
:100A1000D0921405E0921505F0921605D0CEC12CA7
:100A2000D12C7601C701B6010E940726F9CECF92DC
:100A3000DF92EF92FF921F93CF93DF9384E090E0D9
:100A40009FDDE3EFF1E08BE2DF011D928A95E9F78C
:100A500080E090E0A0E8BFEB86A397A3A0A7B1A792
:100A60008FE692E1A3E8BAE382A393A3A4A3B5A37C
:100A70008BED90EFA3E8BFE984839583A683B783CA
:100A80008CED90E8ADEBB6E480879187A287B387C1
:100A900085E49DECABEAB4EF84879587A687B7879A
:100AA0008AEB92E9A7E5B0E8808B918BA28BB38BA0
:100AB000A7EEB1E0B383A283E1EEF1E01196FC93DF
:100AC000EE9380E491E09183808393838283958386
:100AD000848387E092E015969C938E93149787EF1A
:100AE00091E013969C938E93129789E092E017966B
:100AF0009C938E931697E9E1F5E080E1DF011D926A
:100B00008A95E9F7CDEFD4E08CE1FE0111928A9548
:100B1000E9F711E01B8F8091000190910101A091F4
:100B20000201B091030188879987AA87BB87C12CEE
:100B3000D12C7601C394C982DA82EB82FC826EE00A
:100B400070E080E090E037DB9F838E831D831C86FE
:100B50001A8FCD86DE86EF86F88A61E089E059DB60
:100B6000198BDF91CF911F91FF90EF90DF90CF9085
:100B700008958091FD0481111DC081E08093FD04E2
:100B80008091FE049091FF04A0910005B0910105B1
:100B90000197A105B10571F480910205882351F0F8
:100BA0006EE070E080E090E0C2DA909304058093FC
:100BB000030524DB80910905811103C081E0809346
:100BC000090508954F925F926F927F928F929F9244
:100BD000AF92BF92CF92DF92EF92FF920F931F934B
:100BE000F89440902A0250902B0260902C02709052
:100BF0002D02C0901E02D0901F02E0902002F090C3
:100C00002102452B09F0A4C09B01AC012419350930
:100C10004609570929013A0100912602109127023D
:100C2000209128023091290248015901840C951C19
:100C3000A61CB71C80169106A206B306A0F400916C
:100C400022021091230220912402309125020F5F8D
:100C50001F4F2F4F3F4F00932202109323022093E8
:100C60002402309325028092260290922702A092BD
:100C70002802B092290200912202109123022091B1
:100C800024023091250280922E0290922F02A0928F
:100C90003002B0923102009332021093330220935B
:100CA00034023093350260932A0270932B028093B2
:100CB0002C0290932D02A8EEB3E0A30192010E94B2
:100CC000A12B6C0D7D1D8E1D9F1D60931E027093C8
:100CD0001F0280932002909321020091160110912F
:100CE000170120911801309119010F3F1F4F2F4F0D
:100CF0003F4FF1F00091160110911701209118015A
:100D0000309119010E3F1F4F2F4F3F4F89F0C09078
:100D10001601D0901701E0901801F090190121E020
:100D20008C149D04AE04BF0408F420E020933A0222
:100D300078941F910F91FF90EF90DF90CF90BF902C
:100D4000AF909F908F907F906F905F904F9008959D
:100D50004B015C0184189508A608B708A30192010D
:100D6000261B370B480B590B64157505860597052F
:100D7000D0F082169306A406B50640F420E030E0D9
:100D8000A90181149104A104B10491F4A8EEB3E087
:100D90000E94A12BA7019601261B370B480B590B6C
:100DA000CA01B901C5CF82169306A406B50670F72D
:100DB000A8EEB3E0A50194010E94A12B6C0D7D1D4E
:100DC0008E1D9F1DB5CFFECECF93DF9300D000D0F8
:100DD000CDB7DEB71C821B821A82198210923602AE
:100DE000109237021092380210923902BE016F5FE2
:100DF0007F4FCE0103960E94D02369817A818B8137
:100E00009C810E94C81C009761F4BE016F5F7F4FF8
:100E1000CE0103960E94DC2369817A818B819C81BB
:100E20002CD50F900F900F900F90DF91CF910895D8
:100E3000FF920F931F93CF93DF93082F60E070E032
:100E4000CB010E945C28FF24F3940E94B31BEC01A9
:100E5000892B89F010E0CE3F8FEFD80769F000238F
:100E600061F160E070E0CB010E945C2881E090E0DD
:100E7000892B59F322C011E023D5EC01892B21F0F5
:100E8000CE3F8FEFD80759F711111EC011E02296FF
:100E900009F410E00E94641BEC01892B21F0CE3F85
:100EA0008FEFD807E1F6111111C011E0CE3F8FEF9F
:100EB000D80709F410E001110BC0CE01DF91CF91EA
:100EC0001F910F91FF90089511E0E4CF11E0F3CF4F
:100ED00060E070E0CB010E945C281F25812F90E02C
:100EE000C7CFCF93DF9380913A02882321F060E04F
:100EF00070E0CB014CD635D6D0E0C0E0892B71F044
:100F00006AE070E080E090E00E945C2881E090DF81
:100F100028D62196C03D27E0D20781F727D60E9428
:100F20001C1D109252021092510210924B0210920C
:100F30004C0210924D0210924E02109247021092F3
:100F400048021092490210924A02109243021092F3
:100F50004402109245021092460210923F021092F3
:100F60004002109241021092420210923B021092F3
:100F70003C0210923D0210923E024EEF5FEF6FEF87
:100F80007FEF4093160150931701609318017093FF
:100F9000190110923A02EEE2F2E028E0DF011D9220
:100FA0002A95E9F710922A0210922B0210922C0235
:100FB00010922D02109226021092270210922802FF
:100FC00010922902109222021092230210922402FF
:100FD0001092250210921E0210921F0210922002FF
:100FE00010922102DF91CF91089510925E0210922B
:100FF0005F02109260021092610210925D02809175
:1010000066029091670290935C0280935B0210925B
:101010005A021092590210925502109256021092E2
:10102000570210925802109263021092620290E0EE
:1010300080E00895CF92DF92EF92FF920F931F937B
:10104000CF938C01892B09F055C020916602309115
:10105000670280915B0290915C0240916602509120
:10106000670250935C0240935B022817390781F0B6
:1010700010925A0210925902109255021092560282
:10108000109257021092580210926302109262025C
:101090008091660290916702019761F580916202EA
:1010A00090916302892B21F480911A01811112C061
:1010B00080916202909163020197E1F48091550260
:1010C00090915602A0915702B09158020197A10544
:1010D000B10581F4109255021092560210925702F7
:1010E0001092580210921A0182E090E090936302ED
:1010F000809362028091660290916702019709F0E5
:101100001CC180917C0290917D028017910709F0AB
:1011100014C18091780290917902A0917A02B091E5
:101120007B02009709F409C12091770221110DC0BB
:10113000409178025091790260917A0270917B021D
:10114000452B462B472B09F4F8C0209162023091C1
:1011500063022230310509F0F0C0209159022111BB
:10116000ECC0FC01C080D180E280F38080915D0200
:10117000882309F4D3C08091690290916A02892B77
:1011800009F4FDC02091690230916A0281E02230A9
:10119000310509F080E02091690230916A02C1E0D6
:1011A0002130310549F02091690230916A02C1E095
:1011B0002230310509F0C0E0882309F456C020919F
:1011C0007302309174024091750250917602C7010A
:1011D000B6010E94862787FD14C0209173023091CA
:1011E0007402409175025091760260915E02709196
:1011F0005F0280916002909161020E94032687FD48
:1012000022C0209173023091740240917502509176
:101210007602C701B6010E948627181634F5209180
:101220007302309174024091750250917602609180
:101230005E0270915F0280916002909161020E9453
:101240000326811112C080916B0290916C02A091D3
:101250006D02B0916E02892B8A2B8B2B19F481E0E1
:1012600080935A0281E080935902CC2309F456C03E
:101270002091730230917402409175025091760270
:10128000C701B6010E94032687FF14C02091730294
:1012900030917402409175025091760260915E0225
:1012A00070915F0280916002909161020E94862796
:1012B00087FF22C020917302309174024091750221
:1012C00050917602C701B6010E940326811126C003
:1012D0002091730230917402409175025091760210
:1012E00060915E0270915F02809160029091610254
:1012F0000E948627181694F480916B0290916C02DC
:10130000A0916D02B0916E02892B8A2B8B2B19F460
:1013100081E080935A0281E08093590281E09091AC
:101320005902911180E080935D02C0925E02D092DA
:101330005F02E0926002F0926102012B09F067C146
:101340008091620290916302892BD9F41092680215
:101350001092590280911A01882379F082E090E07E
:10136000909363028093620210921A0120916602A8
:101370003091670281E0232BE9F080E01BC081E01F
:101380000ACF10921A0180916802882349F01092C6
:101390005A02109263021092620210926802EDCF1C
:1013A0008091660290916702892BE1F08091590249
:1013B000109259022091620230916302223031056D
:1013C00009F45EC088F42115310509F448C02130C4
:1013D000310509F4F3C010925A021092590210928A
:1013E000680238C081E0E6CF2330310509F4B1C08E
:1013F0002430310581F74091550250915602609199
:10140000570270915802411551056105710561F04F
:101410004150510961097109409355025093560298
:1014200060935702709358024091550250915602B2
:101430006091570270915802452B462B472BD9F4E7
:1014400020916402309165022130310509F046C0D7
:1014500010925A0210926302109262020CC08091A4
:101460001A01882341F082E090E090936302809318
:10147000620210921A011092530280915A02CEC059
:101480008823C9F380916B0290916C02A0916D0248
:10149000B0916E02181619061A061B060CF07DC0D4
:1014A0008091660290916702019709F076C0809161
:1014B0006B0290916C02A0916D02B0916E028093CC
:1014C000550290935602A0935702B093580283E0BE
:1014D00090E09093630280936202CDCF40916F02BF
:1014E000509170026091710270917202452B462BEF
:1014F000472BA9F010925A0280916F0290917002CE
:10150000A0917102B091720280935502909356029D
:10151000A0935702B093580281E090E0DACF88237D
:1015200099F080911B0190911C01A0911D01B09137
:101530001E018093550290935602A0935702B093D8
:10154000580284E090E0C5CF10925A0282E090E009
:10155000C0CF8091550290915602A0915702B09150
:1015600058020097A105B10559F00197A109B109E9
:101570008093550290935602A0935702B09358025D
:101580008091550290915602A0915702B091580255
:10159000892B8A2B8B2B09F06ECF80911B019091A8
:1015A0001C01A0911D01B0911E01892B8A2B8B2B50
:1015B00009F44ECF81E080935A02B3CF4091550297
:1015C0005091560260915702709158024115510591
:1015D0006105710561F0415051096109710940933C
:1015E00055025093560260935702709358024091EF
:1015F0005502509156026091570270915802452B46
:10160000462B472B09F037CF8111C7CF9FCF809151
:101610005302882309F431CF80915402CF911F9156
:101620000F91FF90EF90DF90CF90089510925E029F
:1016300010925F02109260021092610210925D029D
:10164000109263021092620210925C0210925B028E
:1016500010927D0210927C0210925A02109259024E
:101660001092550210925602109257021092580290
:101670001092540210925302109278021092790242
:1016800010927A0210927B021092770210927302EB
:1016900010927402109275021092760288EE93E016
:1016A000A0E0B0E080931B0190931C01A0931D016A
:1016B000B0931E0110926F0210927002109271028C
:1016C0001092720210926B0210926C0210926D02D4
:1016D00010926E0210926A021092690281E0809369
:1016E0001A0110926802109267021092660210921C
:1016F00065021092640290E080E008958091660295
:1017000090916702892B19F580911A01882351F075
:1017100080916802811106C081E080935402809319
:10172000530208952091680230911A0181E090E0FF
:10173000332311F090E080E030E082239323892B63
:1017400021F01092540281E0EACF109253020895E2
:1017500082E090E0FA01918380838FEF9FEF0895FC
:10176000CF93DF93EA01009711F00E94391E19828E
:10177000188290E080E0DF91CF910895DB0100971F
:1017800019F48FEF8C9308952EEF2C930F968F30D2
:10179000910508F033C0FC01E053F44F0C948C2BFE
:1017A000FC0BFA0BF80BF60BF40BF00BF20BEE0B39
:1017B000EC0BEA0BE70BE30BDF0BE50BFE0B80E317
:1017C00011968C93089589E2FBCF82E2F9CF1196AE
:1017D0001C92089583E2F4CF81E2F2CF81E1F0CF51
:1017E00087E2EECF8AE2ECCF80E1EACF84E2E8CF75
:1017F00088E2E6CF86E2E4CF81E3E2CF80E2E0CF89
:1018000080918A0290918B02089590938B0280932D
:101810008A02089580918902089590918902892B06
:10182000809389020895982F909580918902892349
:10183000809389020895809188020895809186029C
:101840009091870208956115710559F0FB0130E010
:1018500020E070E060E02417350719F0611571058C
:1018600011F0CB010895A081B181A817B90709F43F
:10187000BF012F5F3F4F3696EECF80918C028111D2
:101880001CC062D268D290937F0280937E020E9435
:101890003E160E94501690938302809382020E940B
:1018A000CE1A0E94D51A909381028093800281E023
:1018B00080938C0290E080E0089584EF9FEF08957C
:1018C0008F929F92AF92BF92CF92DF92EF92FF9250
:1018D0000F931F93CF93DF93CDB7DEB72A970FB641
:1018E000F894DEBF0FBECDBF1A86198618861F82F8
:1018F0001E821D821C821B821A82198280918C0298
:1019000007EF1FEF882309F49CC08E010D5F1F4F66
:101910009E012B5F3F4FAE01495F5F4FBE01675F86
:101920007F4F90E080E00E944E1C8C01009721F0D8
:101930000596029708F0DBC029853A852115310507
:1019400009F402C1ED80FE804B815C81B701640F18
:10195000751F8F8198858617970708F4F5C0E20EEA
:10196000F31ED7019C91903C09F07FC04230510595
:1019700008F47BC011968C9140918A0250918B02A1
:10198000452B09F49CC0913F08F071C02CE1290F50
:101990002D3008F48BC02DE2290F203108F489C0C6
:1019A000903C21F48150823008F483C088E3890F91
:1019B0008B3008F481C09EEBC92E9BE0D92EE8EA5B
:1019C000FBE06D817E81AE014F5F5F4F89859A8517
:1019D00009955C01C114D104A1F189809A80811418
:1019E000910479F18B819C818815990508F487C051
:1019F00010E000E04B815C8170E060E0C7010E9474
:101A0000B42B01151105E9F449815A8169857A855C
:101A10008D819E81680F791FC501F6010995E980C6
:101A2000FA800D811E812F81388549855A856FEF97
:101A30007FEF81E090E00E94EA1B8C01892B09F086
:101A400056C0C8012A960FB6F894DEBF0FBECDBFB0
:101A5000DF91CF911F910F91FF90EF90DF90CF908A
:101A6000BF90AF909F908F90089580E085CF30E039
:101A700020E0220F331FF901E258FD4F0190F08161
:101A8000E02D309709F497CF892F90E009950097C2
:101A900009F491CFDC011296ED91FC911397149605
:101AA000CD90DC90309709F08CCF1FC021E030E062
:101AB000E0CF22E030E0DDCF23E030E0DACFD12C00
:101AC000C12CE0EBFBE09F3F09F07BCFE0917E0271
:101AD000F0917F02309721F4C90104EF1FEF0CC091
:101AE0008FEF90E009950097A9F604EF1FEF898525
:101AF0009A85009709F4A5CF0E94391EA2CF0E94B3
:101B0000171D8C0189859A850E94391E70E060E05E
:101B1000C4010E94B01C98878F830E94E71B9E839C
:101B20008D836F8178856115710559F0C8010E9418
:101B3000C51F9A87898706EF1FEF892B09F058CFB9
:101B400059CF08EF1FEF56CF08EF1FEFD0CF2091EE
:101B50008C02222319F020E00C94551687EF9FEF9A
:101B6000089580918A0290918B0208950E94DA1A5A
:101B70000E94341AF5D0EEE7F2E088E0DF011D9212
:101B80008A95E9F710928C0290E080E008950C9419
:101B9000911821E040E050E0BA010C94551686E01F
:101BA00090E0FA019183808390E080E0089547E01F
:101BB00050E063E471E047CEDF92EF92FF920F9323
:101BC0001F93CF93DF938A01EC01C60FD71FE090DC
:101BD0009002F0909102D9800E94FF1CD81619063D
:101BE00078F082E090E0F801918380838EEF9FEFA0
:101BF000DF91CF911F910F91FF90EF90DF900895AB
:101C0000EF2841F482E090E0F8019183808384EF33
:101C10009FEFEECF898180938F0290E00196F801CB
:101C20009183808390E080E0E3CFCF93DF93EA015C
:101C30000E944219882321F00E940C1D0E94431922
:101C400082E090E0998388838BEF9FEFDF91CF91C3
:101C50000895CF93DF93EB0186E0FB0111928A9503
:101C6000E9F78FEF8883D6DD8983E5DD8A83E6DDBA
:101C70009D838C83DF91CF910895CF93DF93EA0109
:101C80000E944519811109C082E090E09983888300
:101C900085EF9FEFDF91CF91089590E080E0B5DD73
:101CA00081E090E09983888390E080E0F3CF0F9308
:101CB0001F93CF93DF93EA018C01060F171F0E9439
:101CC000451981110BC082E090E09983888385EFEC
:101CD0009FEFDF91CF911F910F910895F8018181BE
:101CE000823038F082E090E0998388838EEF9FEF16
:101CF000F0CF81E090E089DD88E090E099838883EF
:101D000090E080E0E6CFCF93DF930097D1F4EB0132
:101D1000FB01329686E0DF011D928A95E9F78FEF8D
:101D2000888385E089831A820E94FF1C8B830E942E
:101D3000FE1C9D838C8381E08E838F83DF91CF9106
:101D40000895DF91CF911ACD87ED9DE090938E029B
:101D500080938D02089580918D0290918E02089556
:101D600010928E0210928D020895809190029091AF
:101D700091020895411105C0611571058105910514
:101D800061F060939002709391028093920290931D
:101D900093024093940281E0089580E00895FF92B9
:101DA0000F931F93CF93DF938A01EC01C60FD71FC8
:101DB000F9800E94FF1CF816190668F082E090E096
:101DC000F801918380838EEF9FEFDF91CF911F9178
:101DD0000F91FF9008956C817D818E819F814B8151
:101DE000C9DF811108C082E090E0F801918380830F
:101DF00084EF9FEFEACF898180938F0290E0019674
:101E0000F8019183808390E080E0DFCFCF93DF9370
:101E1000EA01FC01E60FF71F6481758186819781D5
:101E20004381A8DF811109C082E090E09983888313
:101E300084EF9FEFDF91CF91089581E090E0998347
:101E4000888390E080E0F6CFE0E9F2E040815181C4
:101E500062817381480F511D611D711D4083518343
:101E6000628373830895CF93C0918F024C2F50E00B
:101E7000609190027091910201960E94AB2B8C2F81
:101E8000E3DF10928F02CF910895009799F480912B
:101E90009002909191022FEFFB012083892B59F042
:101EA00020918F0230E02F5F3F4F2417350719F440
:101EB000CB01D9CF63CC0895009799F4809190021B
:101EC000909191022FEFFB012083892B59F02091F3
:101ED0008F0230E02F5F3F4F2417350719F4CB01F5
:101EE000C2CF4CCC089523E1AC01249FC001259FB3
:101EF000900D1124E0919902F0919A02E80FF91FD8
:101F0000238134812250310981E02230310508F0EB
:101F100080E008950F931F93CF93DF9300919B026E
:101F200010919C02D0E0C0E080E00C171D0749F43E
:101F300091E0811190E0892FDF91CF911F910F9156
:101F400008958111F5CFCE01CEDF2196EECFA0917D
:101F50009902B0919A02109729F120919B02309139
:101F60009C0282179307F0F453E1589F9001599F08
:101F7000300D1124A20FB31FED91FC9111973097F2
:101F800089F012968C91681768F48DE0689FE00DD7
:101F9000F11D112480819181892B21F081E09281B2
:101FA000491708F080E008959C0143E1429FC00179
:101FB000439F900D1124E0919902F0919A02E80F4D
:101FC000F91F8385823091F481E090E0658176810C
:101FD00040911F01509120016417750711F490E0A2
:101FE00080E0892B19F081E0232B09F080E008952F
:101FF000FC01A081B1818DE0689FA00DB11D11246D
:1020000013964D915C9185859685489F9001499FD7
:10201000300D589F300D1124C9010196611103C084
:10202000478144FD04960895EF92FF920F931F930A
:10203000CF93DF93EA01FC01E60FF71F02811381C2
:10204000E480F5804F2D6E2DC80181DF81110DC018
:1020500082E090E0998388838EEF9FEFDF91CF91AC
:102060001F910F91FF90EF900895C8013CDF8823E6
:1020700039F082E090E09983888388EF9FEFEECF7C
:102080001093260100932501E0922701F092280188
:1020900081E090E09983888390E080E0DFCFCF9269
:1020A000DF92EF92FF920F931F93CF93DF937A010A
:1020B000EC01C60FD71FC0902501D09026010091DA
:1020C000270110912801412F602FC60140DF8111A7
:1020D00010C082E090E0F701918380838AEF9FEF48
:1020E000DF91CF911F910F91FF90EF90DF90CF90F4
:1020F0000895C601F8DE882341F082E090E0F70100
:102100009183808388EF9FEFEBCF4C815D816E815F
:102110007F819A8189818F3F41F082E090E0F701D1
:10212000918380838EEF9FEFDBCFE3E1EC9D900105
:10213000ED9D300D1124E0919902F0919A02E20F89
:10214000F31F0190F081E02D2DE0029FE00DF11DC5
:1021500011240190F081E02D27E0129FE00DF11D88
:102160001124808391838B8182834383548365838D
:1021700076831F5F1093280181E090E0F70191833F
:10218000808390E080E0ACCFEF92FF920F931F939B
:10219000CF93DF937A018C01060F171FC09199022C
:1021A000D0919A02209781F021E030E0F8018281FD
:1021B000938140919B0250919C028417950710F0E7
:1021C00030E020E0232B71F482E090E0F70191836E
:1021D00080838EEF9FEFDF91CF911F910F91FF9042
:1021E000EF90089543E1489F9001499F300D1124DD
:1021F000C20FD31F78DE882341F082E090E0F70120
:102200009183808388EF9FEFE6CFF80124813581A9
:1022100020383105C8F687818111D6CF4181842FBE
:1022200090E08F7E009741F082E090E0F70191838B
:10223000808386EF9FEFCFCF4F833E832D83268110
:1022400028871986223010F421E0288721E030E029
:10225000F70131832083BFCF88E090E0FA019183BA
:10226000808390E080E00895FB018FEF808381E11F
:1022700081838FEF9FEF9383828380E890E0958343
:102280008483168217820895FB018FEF808391E08B
:10229000918382839383848384E3858381E090E0C8
:1022A000978386830895DF92EF92FF920F931F9397
:1022B000CF93DF93EA01FC01E60FF71F81818130A4
:1022C00071F082E090E0998388838FEF9FEFDF9138
:1022D000CF911F910F91FF90EF90DF900895828131
:1022E0009381D4802581E680F78000919902109136
:1022F0009A020115110539F482E090E099838883F0
:102300008CEF9FEFE4CF40919B0250919C02841789
:10231000950738F082E090E0998388838EEF9FEFF5
:10232000D6CF892B39F082E090E09983888386EFBD
:102330009FEFCDCF8D2D8D7FB1F72130A1F781E0BB
:10234000D11006C091E0E916F10431F080E004C03C
:10235000E2E0EE16F104D0F3882329F390E080E068
:10236000C2DD882339F082E090E09983888388EF8A
:102370009FEFADCFF801D38681E08487F686E586AE
:10238000108A178681E090E09983888390E080E04E
:102390009ECF4CE050E06DE671E055CA8F929F925F
:1023A000BF92CF92DF92EF92FF920F931F93CF9342
:1023B000DF93EA01FC01E60FF71F8281938104811C
:1023C000B580E0919902F0919A02309791F482E001
:1023D00090E0998388838CEF9FEFDF91CF911F91DD
:1023E0000F91FF90EF90DF90CF90BF909F908F90D4
:1023F000089520919B0230919C028217930738F038
:1024000082E090E0998388838EEF9FEFE6CF23E10F
:10241000289F6001299FD00C1124EC0DFD1DE08048
:10242000F180E114F10499F28281081748F78DE0F8
:10243000089F80011124E00EF11EF7018081918137
:10244000892B29F6BB20E1F2F7E0BF9E4001112461
:10245000C4010E94001EF70191838083E0919902DC
:10246000F0919A02EC0DFD1D0190F081E02DE00F3E
:10247000F11F80819181009739F482E090E0998387
:1024800088838DEF9FEFA9CFA40170E060E00E94E8
:10249000B42B8091990290919A02C80ED91EF60130
:1024A00080819181080F191FF801B28281E090E0CC
:1024B0009983888390E080E090CFAF92BF92CF92D3
:1024C000DF92FF920F931F93CF93DF93EA01FC01FA
:1024D000E60FF71F82819381F48000919902109199
:1024E0009A020115110581F482E090E099838883B6
:1024F0008CEF9FEFDF91CF911F910F91FF90DF90B5
:10250000CF90BF90AF90089520919B0230919C0294
:102510008217930738F082E090E0998388838EEFEA
:102520009FEFE8CF2FEF2F0D2C3FA8F723E1289F37
:102530006001299FD00C11240C0D1D1DF801808114
:102540009181892B89F6FDE0FF9E50011124C50180
:102550000E94001EF80191838083E0919902F0911E
:102560009A02EC0DFD1D80819181009739F482E083
:1025700090E0998388838DEF9FEFBCCFA50170E039
:1025800060E00E94B42BE0919902F0919A02EC0D68
:10259000FD1DF28281E090E09983888390E080E0E5
:1025A000A9CFCF92DF92EF92FF920F931F93CF9319
:1025B000DF93860F971FFC0102811381809199029E
:1025C00090919A02892B81F082E090E0FA01918348
:1025D00080838CEF9FEFDF91CF911F910F91FF9040
:1025E000EF90DF90CF900895C801B0E0A0E0019790
:1025F000A109B1098F3F9F4FA105B10540F082E0CD
:1026000090E0FA01918380838EEF9FEFE4CF7A010F
:1026100083E1809F6001819FD00C1124C6010E943C
:10262000001EEC01009741F482E090E0F7019183F5
:1026300080838DEF9FEFCFCFA60170E060E00E9416
:10264000B42BD0939A02C093990210939C020093EA
:102650009B0290E080E02FEF3FEF41E061E070E00F
:102660008017910741F481E090E0F7019183808326
:1026700090E080E0B0CF3A8B298B1B864C877E8719
:102680006D87188A1F8601966396EACFEF92FF92B4
:102690001F93CF93DF93EC0110E0F12CE12C6A81C2
:1026A0001617A8F070E0660F771FAE014F5E5F4F00
:1026B000C7010E94651E009721F02FEF3FEF3A8B74
:1026C000298BDF91CF911F91FF90EF900895612F9B
:1026D000CE018EDC61E070E00E94B01CE816F906C5
:1026E00008F47C011F5FDBCFF894209197023091B2
:1026F000980281E02115310509F080E0232B09F0D3
:10270000789408952F923F924F925F926F927F92AA
:102710008F929F92AF92BF92CF92DF92EF92FF92F1
:102720000F931F93CF93DF933C01660E771EF30147
:10273000828193814C01B12CA12CC0919902D0913E
:102740009A02209769F021E030E060919B0270913D
:102750009C028617970710F030E020E0232BD1F47D
:1027600082E090E0FA01918380838EEF9FEFDF910A
:10277000CF911F910F91FF90EF90DF90CF90BF907E
:10278000AF909F908F907F906F905F904F903F9011
:102790002F9008958092290190922A01A0922B01F6
:1027A000B0922C0163E1689F9001699F300D112464
:1027B000C20FD31FF3018181833040F082E090E0AB
:1027C000FA019183808386EF9FEFD1CF2A012B817D
:1027D0003C81232BF1F4288139819F8191FF2EC008
:1027E000232B09F46FC020919E029A81422F490F3A
:1027F0005527551FBA0141E050E06138710514F0CA
:1028000050E040E0452B09F45DC02A87920F909379
:102810009E028150823008F481C066DF882309F46B
:10282000D8C0F3018181813009F48DC008F47BC0E8
:10283000823009F4C6C090E080E0ADC0232B09F4DB
:1028400041C020919D029A81E22FE90FFF27FF1FCF
:1028500041E050E0ED3FF10514F050E040E0452B41
:1028600089F12A87920F90939D02D3CFA081B181E5
:10287000A20FB31F11966C91060F111D0196295FCF
:102880003F4F8417950794F38D859E85089F10010F
:10289000099F300C189F300C1124C114D104D1F4BD
:1028A0008F8184FF17C00E94FE1CF5E02F0E311CA3
:1028B00021E08215930508F420E0A701435F5F4FF4
:1028C00021110EC082E090E0F2019183808387EFB6
:1028D0009FEF4DCF0E94FE1C2FEF221A320AE8CF45
:1028E00088819981E80EF91EF70114830383FFEFB5
:1028F000CF1ADF0A7A018A818C151D0409F00CF4C5
:102900008CCFE881F981EE0DFF1D428150E030E06F
:1029100020E010E000E090E080E0B3CFF12CE12C6B
:10292000D12CC12CE8CF81E090E09C838B83F2DA3C
:10293000882309F480CF81E090E00E94050C80E4B8
:102940000E94130C78CF89899A89019661F083E0FF
:1029500090E09C838B8382E090E00E94050C80E4F1
:102960000E940D0C68CF8D819E8120911F013091B6
:10297000200182179307D1F4609123017091240103
:10298000AE014F5E5F4F80912101909122010E9424
:10299000841F0097E1F2789422E030E0F201318365
:1029A0002083892B99F08DEF9FEFE1CE89288A282B
:1029B0008B2869F6892B59F6CE0168DE188A1F86A6
:1029C000E8CF82E090E09C838B8335CF90E080E07D
:1029D000CECE82E090E0F2019183808385EF9FEF7D
:1029E000C6CE8F929F92AF92BF92CF92DF92EF921C
:1029F000FF920F931F93CF93DF93EA018C01060F91
:102A0000171FF8018181833098F082E090E099836C
:102A1000888386EF9FEFDF91CF911F910F91FF90F9
:102A2000EF90DF90CF90BF90AF909F908F900895E0
:102A30008091990290919A02892B61F081E090E057
:102A400020919B0230919C02232B11F490E080E0B6
:102A5000892B39F482E090E0998388838EEF9FEF91
:102A6000DACF42DE882309F4DFC0F80181818130AA
:102A700009F495C0E8F0823099F420919B023091DE
:102A80009C02E0919902F0919A0290E080E041E08E
:102A900050E02817390709F0BDC03CDA811117C092
:102AA000789481E090E09983888390E080E0B3CFD0
:102AB00020919B0230919C02E0919902F0919A0240
:102AC00090E080E041E050E02817390741F481E0D0
:102AD00090E00E94050C80E40E94130CE1CF63811A
:102AE0007481672B11F05483438301967396ECCF66
:102AF000E0919902F0919A02E00FF11F2381348155
:102B000022303105D9F4218932892F3F3F4FB1F46A
:102B10002581368140911F015091200124173507EE
:102B200061F5AF014F5E5F4F609123017091240109
:102B300080912101909122010E94841FEFEFCE1A13
:102B4000DE0AEE0AFE0A0D5E1F4F40919B02509175
:102B50009C0270E060E0C416D506E606F7063CF578
:102B6000009731F27894892B09F49BCF82E090E0B2
:102B7000998388838DEF9FEF4ECFC114D104E10478
:102B8000F104E1F6232BD1F6CF0180DDE09199022B
:102B9000F0919A02E00FF11F108A1786CFCF10E054
:102BA00000E090E080E0C12CD12C7601CECF0097E0
:102BB000C9F610E000E0812C912C540183E0E82E4E
:102BC000F12C1AC0E0919902F0919A02E00FF11FE6
:102BD00083819481029749F4F482E38282E090E059
:102BE0000E94050C80E40E940D0CFFEF8F1A9F0AD3
:102BF000AF0ABF0A0D5E1F4F80919B0290919C020D
:102C0000B0E0A0E088169906AA06BB06DCF290E0C8
:102C100080E0A8CF638174816230710511F4548320
:102C200043830196739635CF82E090E09983888341
:102C300085EF9FEFF0CE0097B9F48FEFFB01808313
:102C40002091290130912A0143E1429FC001439F15
:102C5000900D1124E0919902F0919A02E80FF91F6A
:102C60008285FB01818308950C94BE0B88E090E07F
:102C7000FA019183808390E080E008951092980299
:102C800010929702E9E9F2E086E0DF011D928A9551
:102C9000E9F789EC91E1909396028093950208956B
:102CA000809195029091960208952F923F924F92B3
:102CB0005F926F927F928F929F92AF92BF92CF92CC
:102CC000DF92EF92FF920F931F93CF93DF93CDB7D5
:102CD000DEB72F970FB6F894DEBF0FBECDBFF894C6
:102CE000E0919702F09198023196F0939802E09368
:102CF000970278944090990250909A02411451049E
:102D000009F40CC2E0919B02F0919C02EF2B09F4B4
:102D100005C22D8749875A876B877C8798878F8361
:102D20001201B12CA12C10E000E080919B02909147
:102D30009C02A816B90618F40115110529F1F8949A
:102D400080919702909198020197909398028093B6
:102D500097027894C8012F960FB6F894DEBF0FBE85
:102D6000CDBFDF91CF911F910F91FF90EF90DF903A
:102D7000CF90BF90AF909F908F907F906F905F901B
:102D80004F903F902F9008957101E418F508D101FC
:102D900017968C91179781FD54C013968D919C9135
:102DA0001497039709F04DC015968D919C91EF8172
:102DB000F8858E179F0709F044C0B50190E080E0C8
:102DC0007ED48A832091990230919A023D832C838C
:102DD0003D85332309F44CC04C815D81452B09F4BA
:102DE0009AC180919B0290919C02A816B90608F0A6
:102DF00092C1C501D9D88823E9F06C817D816E0D1F
:102E00007F1D7D836C83DB011F968D919C91892BA7
:102E100089F0D12CC12CF12CE12CAC81BD81129612
:102E20008C9112978E151F0409F094F450961C9201
:102E30001E921F972A81222321F0B50190E080E0A5
:102E400040D43FEFA31AB30A43E1240E311C6DCFE7
:102E5000AC81BD81ED91FC91EC0DFD1D85819681CC
:102E600008D7BFEFEB1AFB0AEDE0CE0ED11CD5CF91
:102E7000EC81FD81309709F44EC180919B029091C5
:102E80009C02A816B90608F046C1EE0DFF1DFF878B
:102E9000EE87C50189D88B83882339F1AE85BF853C
:102EA0001F968D919C915097019621E01D964D9112
:102EB0005C918417950709F020E02E831982712C0C
:102EC00010E000E0AE85BF8512968C91781608F46C
:102ED0005DC0EE85FF85878590890196658576853D
:102EE0000E94562B908B8787A5CFB1E0BE83E6CF9B
:102EF000992493946BC084D6F6019683858382C00F
:102F0000D601ED90FC90B7E06B9EE00CF11C112413
:102F1000F7016381748180818F3F61F121E030E0AE
:102F200002C0220F331F8A95E2F7C901092E000C57
:102F3000AA0BBB0BFB014081518162817381842309
:102F40009523A623B72321E0892B8A2B8B2B09F409
:102F500020E0D4012C93D70111968C91F6012385A2
:102F60003485820F932F911D880E991E1486138627
:102F700063949BC0418150E0C4010E94AB2BEBCF16
:102F8000998206EF1FEFC5C01982C3C0F981F11104
:102F9000A0CFEDE07E9E70011124AE85BF85CD905F
:102FA000DC90CE0CDF1C13D49D838C83BB81BB23B0
:102FB00009F49ECF81E0EE85FF8527853089232B9C
:102FC00009F080E0982E882309F458C0672D8E857B
:102FD0009F850ED8D60118969C938E93179761E023
:102FE00070E0BED4EE85FF85218932892F3F3207FC
:102FF00009F481CFBC01C901C8D7D60116969C93AC
:103000008E931597D60115968D919C9116970097E2
:1030100009F4B6CFEC81FD818E0F9F1F1A969C9309
:103020008E931997AE85BF85ED91FC911197EE0EA9
:10303000FF1EF70121853285148613861A968C911E
:10304000870DD9018D93711016C0EE85FF8587819C
:1030500084FF11C049855A856B857C85F9014183C0
:10306000528363837483F701838594850496A80F44
:10307000B91F14861386F701B287A187D60115966A
:103080008D919C911697892B09F443C0EE85FF859D
:103090002581368180911F019091200128173907E1
:1030A00079F019968D909C90612CD60112968C9196
:1030B0001297681608F424CF1A969C928E9219974C
:1030C000BE81BB2309F460CF61E070E0F601878127
:1030D000908546D4D6011796ED90FC9018971596DA
:1030E0004D915C91E1E0F0E0BA81BB2311F0F0E09A
:1030F000E0E00C811D819C01B501882799278E1B7A
:103100009F0B68D38C01892B21F0F6018581968174
:10311000B0D57394D7CE0FEF1FEF8CCE10E000E048
:103120000ECE2F923F924F925F926F927F928F922C
:103130009F92AF92BF92CF92DF92EF92FF920F9346
:103140001F93CF93DF938091990290919A0210E0A0
:1031500000E0892BA9F0C8DA0AEF1FEF882381F07D
:1031600020909B0230909C02C0919902D0919A02CB
:10317000D12CC12C10E000E02C143D04A9F478946B
:10318000C801DF91CF911F910F91FF90EF90DF90D9
:10319000CF90BF90AF909F908F907F906F905F90F7
:1031A0004F903F902F900895C6010E94D40F88231E
:1031B00009F18B819C810397E9F48F859889892B8C
:1031C000C9F0B60190E080E07AD221E030E08823B7
:1031D00011F030E020E044245524421A530AB12C67
:1031E000A12C912C812C8A818815190409F038F4BE
:1031F000188A1F864FEFC41AD40A6396BDCFE881A0
:10320000F981EA0DFB1D85819681892BA1F161E091
:1032100070E087819085A4D33C01D9D28C01E881EC
:10322000F981EA0DFB1D8185928525813681200F6C
:10323000311FAC01421B530B9A0147815085421B41
:10324000530B70E060E00E94B42BE881F981EA0D35
:10325000FB1DE780F084458156819301B601C201D0
:10326000B9D28C01892B39F0E881F981EA0DFB1D77
:1032700085819681FED45FEF851A950A8DE0A80EB0
:10328000B11CB1CF31CA789408952F923F924F92DA
:103290005F926F927F929F92AF92BF92CF92DF9296
:1032A000EF92FF920F931F93CF93DF9300D000D044
:1032B00000D0CDB7DEB70091990210919A029924FF
:1032C00093940115110509F43EC0A0909B02B090A3
:1032D0009C020ADA982E8823B1F110929A02109279
:1032E000990210929C0210929B0210929D021092E1
:1032F0009E028FEF9FEFDC018093290190932A01BA
:10330000A0932B01B0932C0178947AD31E830D8364
:10331000C12CD12C7601C501B0E0A0E089839A834D
:10332000AB83BC8322242A94322C89819A81AB817D
:10333000BC81C816D906EA06FB06F4F0C80199D488
:1033400080E40E94130C892D26960FB6F894DEBFF8
:103350000FBECDBFDF91CF911F910F91FF90EF90E6
:10336000DF90CF90BF90AF909F907F906F905F90D5
:103370004F903F902F900895AD81BE8115968D910D
:103380009C91169720911F0130912001821793077D
:10339000D1F451968D919C91E6D5ED81FE8180818D
:1033A0009181B12CA12C412C512C3201892B89F512
:1033B000BFEFCB1ADB0AEB0AFB0AED81FE817396A5
:1033C000FE83ED83B2CFC114D104E104F10429F7E7
:1033D000892B19F7ED81FE81818992898F3F9807AA
:1033E00009F021D5AD81BE8152963C922E92519723
:1033F000D4CF8A0D9B1DDC018D919C91009709F023
:1034000038D4BFEF4B1A5B0A6B0A7B0AEDE0AE0EB5
:10341000B11CAD81BE818D919C91119712964C91FA
:1034200050E070E060E044165506660677060CF33F
:1034300020D4BECFCF93DF93EA0127DF811109C0EB
:1034400082E090E09983888385EF9FEFDF91CF91B1
:10345000089581E090E00E94050C81E090E099835E
:10346000888390E080E0F2CF10DF109296021092F5
:103470009502089542E050E065EB71E00C94230C56
:10348000FF920F931F93CF93DF938A01EC01C60F36
:10349000D71FF980B4D20897F816190671F068F0B2
:1034A00082E090E0F801918380838EEF9FEFDF91BF
:1034B000CF911F910F91FF9008956C817D818E8136
:1034C0009F814B810E94BA0E811108C082E090E07A
:1034D000F8019183808384EF9FEFE9CFF9800E9408
:1034E000B50E4F2D50E0BE01685F7F4F0E94AB2BA1
:1034F00089810E94240F81E090E0F801918380830C
:1035000090E080E0D4CFDF92EF92FF920F931F9371
:10351000CF93DF938A01EC01C60FD71F0E94B50E2F
:103520007C01D9806CD2DD2059F0029721E030E097
:10353000D816190619F010F030E020E0232B79F4AA
:1035400082E090E0F801918380838EEF9FEFDF911E
:10355000CF911F910F91FF90EF90DF900895EF288A
:1035600041F482E090E0F8019183808384EF9FEF43
:10357000EECFF9800E94B50E4F2D50E0BE016E5F78
:103580007F4F0E94AB2B89810E94240F81E090E045
:10359000F8019183808390E080E0D9CF8AE39AE1BB
:1035A0009093A00280939F02089580919F02909132
:1035B000A00208950895FC011182108293838283F2
:1035C0000895DB011D921C92DC011296ED91FC9195
:1035D00013977183608313967C936E93129708956B
:1035E000FC0180819181DB018D939C93A081B1814D
:1035F000109741F08D919C9191838083892B11F4D8
:10360000F383E2830895FC0180819181DB018D9336
:103610009C93892B11F47383628371836083089573
:10362000FC0111821082938382830895CF93DF93EC
:1036300000D0CDB7DEB71A821982F894BE016F5F51
:103640007F4F86EA92E0CCDF89819A81009709F06A
:1036500010D389819A81892B89F7BE016F5F7F4FD3
:103660008AEA92E0BDDF89819A81009709F001D34F
:1036700089819A81892B89F778940F900F90DF9137
:10368000CF910895CF93DF9300D0CDB7DEB71A82E4
:103690001982F894BE016F5F7F4F82EA92E0A0DF4B
:1036A00089819A81009709F0E4D289819A81892BD6
:1036B00089F778940F900F90DF91CF91089581E072
:1036C000089590E080E00895EF92FF920F931F938A
:1036D000CF93DF9300D0CDB7DEB71A8219828091E5
:1036E000A10207EF1FEF8823A1F1F894BE016F5FDD
:1036F0007F4F8AEA92E074DF789489819A81EE2480
:10370000E394F12C892B51F4F894BE016F5F7F4F45
:1037100086EA92E065DF7894F12CE12C89819A8128
:103720000EEF1FEF0097A9F0FC014281538164E086
:1037300070E06AD68C01892B61F0F89469817A81F6
:10374000C701880F991F880F991F8A559D4F5BDF0E
:103750007894C8010F900F90DF91CF911F910F9136
:10376000FF90EF9008950F931F93CF93DF9300D0B6
:1037700000D0CDB7DEB71C821B821A8219828091DD
:10378000A10207EF1FEF8823C1F0AE014D5F5F4F2D
:1037900064E070E0CE010196AAD68C01892B69F411
:1037A000E981FA818B819C8193838283F89469817A
:1037B0007A8182EA92E005DF7894C8010F900F9039
:1037C0000F900F90DF91CF911F910F910895AFD778
:1037D000049608958F929F92AF92BF92CF92DF92FC
:1037E000EF92FF920F931F93CF93DF9300D0CDB74B
:1037F000DEB71A821982BC016F5F7F4F633071059B
:1038000098F0AA24AA94BA2CC5010F900F90DF91CA
:10381000CF911F910F91FF90EF90DF90CF90BF90CD
:10382000AF909F908F9008954115510551F3480135
:1038300059018A016C01CBDF8815990511F7E11454
:10384000F104F9F28E0D9F1DA816B906D0F28091F1
:10385000A1028823F1F0F894B50164507109970131
:10386000AE014F5F5F4FC8010496D6D65C01892B2D
:1038700071F489819A81F80193838283C601880F4C
:10388000991F880F991FB8018A559D4F9ADE789429
:10389000BBCF87EFA82EBB24BA94B6CFAF92BF920E
:1038A000CF92DF92EF92FF920F931F93CF93DF930C
:1038B00000D0CDB7DEB71A821982892B09F047C034
:1038C0006115710509F443C04115510509F43FC064
:1038D0002115310509F43BC001151105C1F1809195
:1038E000A1028823B9F179016A015B01F894BE0154
:1038F0006F5F7F4F82EA92E073DE789489819A81CC
:10390000009759F1DC0112966D917C91A801049603
:103910009CD68C01E981FA81D501ED93FC938281DB
:1039200093810496F6019183808351DFD7018D93B3
:103930009C93C8010F900F90DF91CF911F910F9131
:10394000FF90EF90DF90CF90BF90AF9008950FEF72
:103950001FEFEFCF07EF1FEFECCF0EEF1FEFE9CF19
:10396000CF93DF93EC01672B71F4EAD68C179D0798
:1039700060F0DDD62496C80FD91FDCD68C0F9D1FB2
:10398000DF91CF910895D9D6F1CF90E080E0F8CFC4
:103990000F931F93CF93DF932091A10221112BC08E
:1039A0008B01EC0186EA92E006DE8AEA92E003DE11
:1039B00082EA92E000DE97D00097C1F4C1D670E0B1
:1039C00060E0CEDF4DE251E062E070E07ED1009732
:1039D00069F480912D0190912E01C4D6B801CE01D9
:1039E000F9D4009719F421E02093A102DF91CF913F
:1039F0001F910F91089584EF9FEFF8CF9EC6A0C648
:103A0000CF93DF93A0D6EC01892B11F40FDE3ADEC1
:103A1000CE01DF91CF910895CF93DF9394D6EC013F
:103A2000892B09F403DECE01DF91CF9108958091B7
:103A30002D0190912E010895CF93DF938091A102E3
:103A4000D0E0C0E08823D1F092D6EC01892BB1F40C
:103A5000EDDD18DE80912D0190912E01E4D1E5D2AB
:103A6000EC01892B59F486EA92E0DADD8AEA92E0E9
:103A7000D7DD82EA92E0D4DD1092A102CE01DF917F
:103A8000CF910895EF92FF920F931F93CF93DF93FF
:103A9000EC017A018B010F5F1F4F0E9DA0010F9D5E
:103AA000500D1E9D500D112470E060E00E94B42B5B
:103AB00090E080E0F0E0E0E02FEFE816F90639F45E
:103AC000DF91CF911F910F91FF90EF9008951A828F
:103AD00019822883309711F0D283C1830196FE01A9
:103AE000C00FD11FEACFCF92DF92EF92FF920F93D8
:103AF0001F93CF93DF930AE913E00C7F43E050E07C
:103B00006FE271E085E391E012D48FE2E82E81E06C
:103B1000F82E95E3C92E91E0D92EC1E0D4E0D7016B
:103B20004D915D917D01F601619171916F01198354
:103B300008835D834C835B834A837F836E839B0111
:103B40002F5F3F4F249FC001259F900D349F900D04
:103B50001124998788870115110511F0C80192DF9A
:103B600088859985080F191F2A96F5E3EF16F1E06D
:103B7000FF06A9F6E0EBF2E087EEDF011D928A95E1
:103B8000E9F71092AF021092AE0210922004109248
:103B90001F04109224041092230410922204109205
:103BA00021041092260410922504109228041092E9
:103BB000270410922A041092290410922E041092C5
:103BC0002D0410922C0410922B04109230041092A9
:103BD0002F0410923204109231041092FE031092BE
:103BE000FD03109200041092FF0390E080E0DF914B
:103BF000CF911F910F91FF90EF90DF90CF9008959C
:103C00000097F1F0F894A5E3B1E0E1E0F4E030E0F2
:103C100020E04D915D9148175907A8F042815381EA
:103C20004115510581F08AE0829FF001839FF00DDC
:103C30001124EF5FFB4F80819181009759F47894B4
:103C400090E080E008952F5F3F4F3A962330310592
:103C500001F7F5CFDC0111966D917C917183608342
:103C60004150510953834283FC012193CF01789441
:103C70000895009749F1DC018E91853041F4E0917F
:103C8000FF03F09100043097F9F0CD0109948530DD
:103C9000D8F4282F30E0F8948FEF8C938AE0829F3D
:103CA000F001839FF00D1124EF5FFB4F8081918124
:103CB00012969C938E931197B183A08382819381F6
:103CC00001969383828378940895CF92DF92EF9246
:103CD000FF920F931F93CF93DF939C0183EB92E0AE
:103CE0008C7F4115510509F49BC02115310509F45C
:103CF00097C06115710509F493C07A01AB01B90150
:103D00006D5F7F4F6C7F9B012F5F3F4F249F800132
:103D1000259F100D349F100D1124F89420911F043D
:103D200030912004232B59F420912704309128044A
:103D30002115310569F12017310708F058C020918D
:103D4000290430912A04232B91F4209127043091E7
:103D50002804820F931F20913104309132042115E1
:103D6000310509F441C02017310708F056C0789496
:103D7000CFEFDFEF86EF9FEFF701D183C083DF91B5
:103D8000CF911F910F91FF90EF90DF90CF9008950A
:103D9000C3E0D0E0C090AE02D090AF0224EE30E09D
:103DA0002C193D092017310710F32AE02C9FF00150
:103DB0002D9FF00D1124EF5FFB4F9183808355837E
:103DC00044835383428377836683118700870097F8
:103DD00009F058DE0C0D1D1D1093AF020093AE02CA
:103DE000789490E080E0C8CFC4E0D0E0D3CFC3E0C7
:103DF000D0E02AE02C9FF0012D9FF00D1124EF5F01
:103E0000FB4F91838083558344835383428377831D
:103E10006683009729F336DEE3CFC4E0D0E0E9CF34
:103E20008FEF9FEFACCF9C010397029708F069C01A
:103E3000F89484E09AE0482F50E0241735070CF4FA
:103E40004DC091E08AE0829FF001839FF00D112424
:103E5000EF5FFB4F1182108215821482138212824F
:103E6000178216829923B1F180911F04909120044A
:103E7000892BA9F4209127043091280421153105BC
:103E800071F08091AE029091AF02821B930B9093E0
:103E9000AF028093AE021092280410922704809102
:103EA000290490912A04892BA9F42091310430919E
:103EB00032042115310571F08091AE029091AF026C
:103EC000821B930B9093AF028093AE021092320448
:103ED00010923104789490E080E00895949FF0016E
:103EE000959FF00D1124EF5FFB4F40815181452BD1
:103EF00031F440855185452B11F481509CCF90E0E1
:103F0000A1CF8FEF9FEF08954115510549F100971B
:103F100039F16115710521F1F8942091FD0330917B
:103F2000FE03232BB9F42091FF0330910004232BCF
:103F300089F49093FE038093FD03709300046093D3
:103F4000FF03789425E030E090E080E0FA013183CF
:103F50002083089578942FEF3FEF86EF9FEFF6CF01
:103F60008FEF9FEF0895059769F4F8941092FE0380
:103F70001092FD03109200041092FF03789490E0D9
:103F800080E008958FEF9FEF08956115710519F492
:103F9000F0E0E0E011C08530910581F4E091FD038F
:103FA000F091FE033097A1F3CB010196099500979C
:103FB00079F3FC0185E08193CF0108959C012350A2
:103FC00031092230310520F72AE0289FD001299FAE
:103FD000B00D1124AF5FBB4F2D913C911197232B56
:103FE000B9F216962D913C9117972617370780F254
:103FF000F89412962D913C9113972115310529F0D3
:10400000ED91FC911197309711F47894C1CF4181D3
:10401000528111965C934E932150310913963C9333
:104020002E93129781937894C7CFE7E9F3E086E661
:10403000DF011D928A95E9F7E0EBF2E087EEDF0100
:104040001D928A95E9F71092AF021092AE02E1E05C
:10405000F4E082E3DF011D928A95E9F7EDEFF3E0EA
:1040600084E0DF011D928A95E9F790E080E00895F1
:10407000CF93DF93C0913B01D0913C01CF3FDC0750
:1040800059F407D490933C0180933B0197FF09C0FA
:10409000D0933C01C0933B0184EF9FEFDF91CF9120
:1040A000089590E080E0FACF8230910528F4809363
:1040B000330490E080E008958FEF9FEF08954F92D2
:1040C0005F926F927F92AF92BF92CF92DF92EF9208
:1040D000FF920F931F93CF93DF9300D0CDB7DEB73E
:1040E0001A821982009709F478C06115710509F4E4
:1040F00074C020913B0130913C0107EF1FEF2F3F2F
:104100003F4F09F444C06B015C01412C512C32013A
:10411000F12CE12C10E000E09E012F5F3F4FA60143
:104120004E195F09B5016E0D7F1D80913B01909185
:104130003C010ED4892B09F04AC089819A810097ED
:1041400041F4E114F10429F420913304222309F409
:1041500041C0E80EF91EEC14FD04C8F480E84816CE
:1041600084E858068EE16806710418F560E070E096
:10417000CB01A2D72AE0420E511C611C711C0A3FE0
:104180004FEF140721F0043F8FEF1807A1F4C80187
:104190000F900F90DF91CF911F910F91FF90EF90B3
:1041A000DF90CF90BF90AF907F906F905F904F90D7
:1041B000089501EF1FEF81E090E0013F2FEF12071C
:1041C00011F090E080E0892B09F4A6CFE0CF04EF56
:1041D0001FEFDDCF0AEF1FEFDACF0FEF1FEFD7CFC3
:1041E0004F925F926F927F92AF92BF92CF92DF9287
:1041F000EF92FF920F931F93CF93DF9300D0CDB731
:10420000DEB71A821982009709F478C0611571052A
:1042100009F474C020913B0130913C0107EF1FEF7E
:104220002F3F3F4F09F444C06B015C01412C512CDE
:104230003201F12CE12C10E000E09E012F5F3F4F96
:10424000A6014E195F09B5016E0D7F1D80913B01DE
:1042500090913C0133D3892B09F04AC089819A811E
:10426000009741F4E114F10429F42091330422234E
:1042700009F441C0E80EF91EEC14FD04C8F480E412
:10428000481682E458068FE06806710418F560E06D
:1042900070E0CB0111D72AE0420E511C611C711C49
:1042A0000E3F4FEF140721F0043F8FEF1807A1F4E2
:1042B000C8010F900F90DF91CF911F910F91FF9048
:1042C000EF90DF90CF90BF90AF907F906F905F9016
:1042D0004F90089502EF1FEF81E090E0023F2FEF33
:1042E000120711F090E080E0892B09F4A6CFE0CF0F
:1042F00004EF1FEFDDCF0EEF1FEFDACF0FEF1FEF51
:10430000D7CF80913B0190913C018F3F980749F0B6
:10431000B8D2892B49F48FEF9FEF90933C018093A3
:104320003B0190E080E0089584EF9FEF0895CF92E5
:10433000DF92EF92FF920F931F93CF93DF9321E0D1
:104340004115510509F020E04150510921112CC0BF
:10435000DC01FB01D12CC12C21E022C03FEFC31AAC
:10436000D30A7D010D911D91E701EA80FB80E016E3
:10437000F106A8F420813181E280F380F182E082AD
:1043800033832283ED90FC9011979D0122503109D7
:10439000E901F982E88211961C930E9320E032968F
:1043A000C416D506D8F2D2CFDF91CF911F910F91CD
:1043B000FF90EF90DF90CF900895FC01680F791F78
:1043C00090E080E0E617F70709F408952191820F45
:1043D000911DF8CF20913404211113C049DE0097BC
:1043E00091F410923A041092390410923804109209
:1043F0003704109236041092350421E020933404DF
:10440000089584EF9FEF0895AF92BF92CF92DF920D
:10441000EF92FF920F931F93CF93DF93009709F4CE
:1044200060C04630510508F45CC020913404C7EFE9
:10443000DFEF222309F449C08C01060F171FF80192
:10444000C080D180C114D10409F44EC096012A5F06
:104450003F4F4217530708F447C07C01809139044D
:1044600090913A0493838283B6016C5F7F4F580129
:10447000A60EB71EC801A1DFF5019183808364E019
:1044800070E0C8011CDEEC01892BF9F481E090E0BA
:104490000BDEB601C801049612DEEC01892B91F403
:1044A00062E070E0C5010BDEEC01892B59F4C70115
:1044B000E0DB8091390490913A04019690933A049C
:1044C0008093390490E080E0EFDDCE01DF91CF9161
:1044D0001F910F91FF90EF90DF90CF90BF90AF9022
:1044E0000895CFEFDFEFF1CFC9EFDFEFEECF6F929F
:1044F0007F928F929F92AF92BF92CF92DF92EF9274
:10450000FF920F931F93CF93DF9300D000D0CDB7CE
:10451000DEB7009709F47AC04115510509F476C059
:104520002091340407EF1FEF222309F44DC03A0114
:104530007B015C0164E070E0CE01019651DE8C01EC
:10454000892B09F041C009811A810115110509F46F
:104550005AC0480186E0880E911CB701680D791D8C
:1045600080913D0190913E0110DD6C01009709F4AE
:1045700050C0A70170E060E00E94B42B89819A814D
:10458000AB81BC81EC0CFD1CF70181939193A1934D
:10459000B1937F0181E090E087DDB801C70120DEA3
:1045A000892B31F562E070E0C701800F911F18DEA2
:1045B0008C01892BE9F490E080E076DDF501D18271
:1045C000C082F30191828082C8010F900F900F90FA
:1045D0000F90DF91CF911F910F91FF90EF90DF909F
:1045E000CF90BF90AF909F908F907F906F900895E5
:1045F00090E080E059DDF50111821082F301118213
:104600001082C60136DB09EF1FEFDECF0FEF1FEF81
:10461000DBCF06EF1FEFD8CF0097A1F04115510572
:1046200089F02115310571F0F90136966E177F0773
:1046300048F0DC012D933C93DA01ED93FC9390E07C
:1046400080E008958FEF9FEF0895AF92BF92CF92D1
:10465000DF92EF92FF920F931F93CF93DF93009718
:1046600009F45FC04115510509F45BC0653071055F
:1046700008F457C020913404C7EFDFEF222391F1F3
:10468000DC01CD90DC9011971296ED91FC91960192
:104690002A5F3F4FC9EFDFEF2617370719F5C091A3
:1046A0003504D0913604209749F521E030E030936D
:1046B0003604209335047A018C01F0933804E0939A
:1046C00037045601B4E0AB0EB11CB50176DE0A0D1D
:1046D0001B1DF801208131818217930729F5D7012D
:1046E000CD92DC92CE01DF91CF911F910F91FF907F
:1046F000EF90DF90CF90BF90AF9008952091370456
:10470000309138042F5F3F4FCCEFDFEFE217F30714
:1047100090F2CBEFDFEF2E173F0768F2D0E0C0E05A
:10472000CACFCFEFDFEFDECFC3EFDFEFDBCF84E029
:1047300090E0089582E090E008958CEF9FEF089557
:1047400080E290E0089510923A0410923904109299
:10475000380410923704109236041092350490E019
:1047600080E0089590933E0180933D0108958091EB
:104770003404882391F0C5DD009789F410923A043F
:1047800010923904109238041092370410923604B3
:104790001092350410923404089590E080E008955A
:1047A000009749F06115710531F0FC01118210820A
:1047B000FB01118210820895F3CF26E030E040E83B
:1047C00055E260E070E090E080E000C0892B19F4D1
:1047D00088E494E059C608951F920F920FB60F9285
:1047E00011242F933F934F935F936F937F938F93F6
:1047F0009F93AF93BF93EF93FF9386E09FEF9093C8
:10480000850080938400B7D0FF91EF91BF91AF9165
:104810009F918F917F916F915F914F913F912F91D8
:104820000F900FBE0F901F90189586E09FEF90930A
:10483000850080938400AFE6B0E08C918E7F8C93EE
:10484000E0E8F0E080818C7F8083E1E8F0E0808127
:10485000877E808380818360808380818B7F80835B
:104860008C9181608C930895EFE6F0E080819081D7
:104870009E7F90838170089581E0089510923B049B
:10488000089568EE73E080E090E016D490E080E058
:10489000089526E030E040E052EC61E070E090E006
:1048A00080E094DF88E494E025D5892B21F088E42A
:1048B00094E03AD5F7CF90E080E00895CF92DF9270
:1048C000EF92FF920F931F93CF93DF936B017A01C7
:1048D000E9011982188288E494E00CD5892B69F1EA
:1048E0008601CC24C39482E0D82E80913B048111B0
:1048F00010C088E494E018D50297B9F7C0923B0441
:10490000F801D1928F0188819981019699838883DA
:10491000ECCF888199818E159F0578F488E494E026
:1049200003D58F3F9807A9F3F80181938F01888100
:104930009981019699838883ECCF90E080E0DF91A4
:10494000CF911F910F91FF90EF90DF90CF9008953E
:104950000F931F93CF93DF93EA01890188E494E0DA
:1049600077D6F801D183C08390E080E0DF91CF91CA
:104970001F910F910895CF92DF92EF92FF92CF9304
:10498000DF9380913C0491E0980F90933C0488233E
:1049900079F021E030E030933E0420933D04809391
:1049A0003C04DF91CF91FF90EF90DF90CF9008957E
:1049B0007894C0914101D09142016E8D7F8D88A184
:1049C00099A151D120E030E040E85FE4A3D26B012F
:1049D0007C016A8D7B8D8C8D9D8D45D19B01AC01B9
:1049E000C701B60199D013D16B017C010E948C03E1
:1049F000B701A60190E080E00E941402F894809133
:104A00003C048150CCCF0F931F93CF93DF93109230
:104A10002A051092290586D3D0DEC0914101D0919C
:104A20004201198218826FEF7FEFCB010E9497023B
:104A300070E060E090E080E00E941801009709F0CB
:104A40003AC00E941705F8947894BE016A5D7F4FC2
:104A50008A819B810E941B01892B59F46FEF7FEFA4
:104A6000CB010E94AA010E949102882311F081E0EB
:104A70008AA7F894DADE0E949402882311F080E07D
:104A800008C00E9491028111FACF81E09AA591118C
:104A9000F6CF8093290578940E94000C8C017894BD
:104AA0008091290581110CC00E94B9050E947602EF
:104AB000F89490E080E0DF91CF911F910F910895DD
:104AC0000E9474020E9494028823D9F081E08093AE
:104AD0002A0590912A0581E0911180E080932905B3
:104AE00080912A058111C0DE0130110529F40E9450
:104AF000000C892B09F4C2DE0E94000C8C01BCDE84
:104B0000CFCF0E9491028111E1CF81E09AA591114E
:104B1000DECF80E0DCCF5058BB27AA270ED0A5C13E
:104B200096D130F09BD120F031F49F3F11F41EF468
:104B30008BC10EF4E095E7FB58C1E92FA7D180F3B4
:104B4000BA17620773078407950718F071F49EF58A
:104B5000D6C10EF4E0950B2EBA2FA02D0B01B90192
:104B600090010C01CA01A0011124FF27591B99F0E3
:104B7000593F50F4503E68F11A16F040A22F232FEF
:104B8000342F4427585FF3CF469537952795A7953F
:104B9000F0405395C9F77EF41F16BA0B620B730BE6
:104BA000840BBAF09150A1F0FF0FBB1F661F771F57
:104BB000881FC2F70EC0BA0F621F731F841F48F40C
:104BC000879577956795B795F7959E3F08F0B3CF92
:104BD0009395880F08F09927EE0F9795879508957C
:104BE00077D180F09F3740F491110EF489C160E0D5
:104BF00070E080E89FE3089526F01B16611D711D8B
:104C0000811DF9C013C1CDD008F481E0089546D1CB
:104C100088F09F5790F0B92F9927B751A0F0D1F0A5
:104C2000660F771F881F991F1AF0BA95C9F712C02F
:104C3000B13081F064D1B1E0089561C1672F782F60
:104C40008827B85F39F0B93FCCF38695779567959B
:104C5000B395D9F73EF490958095709561957F4F07
:104C60008F4F9F4F0895E89409C097FB3EF49095AD
:104C70008095709561957F4F8F4F9F4F9923A9F035
:104C8000F92F96E9BB279395F695879577956795C4
:104C9000B795F111F8CFFAF4BB0F11F460FF1BC008
:104CA0006F5F7F4F8F4F9F4F16C0882311F096E99B
:104CB00011C0772321F09EE8872F762F05C0662349
:104CC00071F096E8862F70E060E02AF09A95660F02
:104CD000771F881FDAF7880F9695879597F90895BB
:104CE000F7D080F09F3740F491110EF009C160E0D9
:104CF00070E080E89FEB089526F41B16611D711D7E
:104D0000811D79C093C0A3D018F011F0A7D038F45A
:104D10009BC0F6C0E92FBAD0B0F35523C9F3E7FB27
:104D20006217730784079507A8F199F3E92FFF2706
:104D300088232AF03197660F771F881FDAF7952F9F
:104D40005527442332F091505040220F331F441F07
:104D5000D2F7BB27E91BF50B621B730B840BB10960
:104D6000C1F222F4620F731F841FB11D31972AF024
:104D7000660F771F881FBB1FEFCF915050405AF02E
:104D800041F0882332F0660F771F881F9150504002
:104D9000C1F793954BC08695779567959F5FD9F737
:104DA000F8CF990F0008550FAA0BE0E8FEEF161692
:104DB0001706E807F907C0F012161306E407F5070F
:104DC00098F0621B730B840B950B39F40A2661F083
:104DD000232B242B252B21F408950A2609F4A14026
:104DE000A6958FEF811D811D089597F99F6780E833
:104DF00070E060E00895882371F4772321F09850E3
:104E0000872B762F07C0662311F499270DC0905188
:104E1000862B70E060E02AF09A95660F771F881F56
:104E2000DAF7880F9695879597F908959F3F31F0A7
:104E3000915020F4879577956795B795880F911DC8
:104E40009695879597F908959FEF80EC0895002433
:104E50000A941616170618060906089500240A94DF
:104E600012161306140605060895092E0394000C65
:104E700011F4882352F0BB0F40F4BF2B11F460FFF4
:104E800004C06F5F7F4F8F4F9F4F089557FD90581D
:104E9000440F551F59F05F3F71F04795880F97FBFE
:104EA000991F61F09F3F79F08795089512161306B8
:104EB0001406551FF2CF4695F1DF08C016161706E7
:104EC0001806991FF1CF869571056105089408951C
:104ED000E5DFA0F0BEE7B91788F4BB279F3860F480
:104EE0001616B11D672F782F8827985FF7CF869504
:104EF00077956795B11D93959639C8F30895E89411
:104F0000BB2766277727CB0197F908954ADF08F476
:104F10008FEF08950BD0A9CF9ADF28F09FDF18F00C
:104F2000952309F062CF90CF1124EACFAFDFA0F331
:104F3000959FD1F3950F50E0551F629FF001729F2E
:104F4000BB27F00DB11D639FAA27F00DB11DAA1F4D
:104F5000649F6627B00DA11D661F829F2227B00D9A
:104F6000A11D621F739FB00DA11D621F839FA00D25
:104F7000611D221F749F3327A00D611D231F849F75
:104F8000600D211D822F762F6A2F11249F575040CC
:104F90008AF0E1F088234AF0EE0FFF1FBB1F661F67
:104FA000771F881F91505040A9F79E3F510570F020
:104FB0001CCFA6CF5F3FECF3983EDCF38695779548
:104FC0006795B795F795E7959F5FC1F7FE2B880F1B
:104FD000911D9695879597F908951F920F920FB698
:104FE0000F9211242F933F938F939F93AF93BF936F
:104FF0008091400490914104A0914204B0914304F7
:1050000030913F0423E0230F2D3758F50196A11D61
:10501000B11D20933F048093400490934104A093DA
:105020004204B09343048091440490914504A091BC
:105030004604B09147040196A11DB11D809344041C
:1050400090934504A0934604B0934704BF91AF9159
:105050009F918F913F912F910F900FBE0F901F90B6
:10506000189526E8230F0296A11DB11DD2CF3FB798
:10507000F8948091440490914504A0914604B09125
:10508000470426B5A89B05C02F3F19F00196A11D26
:10509000B11D3FBFBA2FA92F982F8827BC01CD0182
:1050A000620F711D811D911D42E0660F771F881FE1
:1050B000991F4A95D1F708958F929F92AF92BF9210
:1050C000CF92DF92EF92FF926B017C01D0DF4B0118
:1050D0005C01C114D104E104F104D9F0E6D2C7DFC8
:1050E000681979098A099B09683E73408105910511
:1050F00080F321E0C21AD108E108F10888EE880E99
:1051000083E0981EA11CB11CC114D104E104F10478
:1051100031F7FF90EF90DF90CF90BF90AF909F90CE
:105120008F900895789484B5826084BD84B5816041
:1051300084BD85B5826085BD85B5816085BDEEE69F
:10514000F0E0808181608083E1E8F0E0108280817E
:1051500082608083808181608083E0E8F0E08081EC
:1051600081608083E1EBF0E0808184608083E0EB0C
:10517000F0E0808181608083EAE7F0E080818460F4
:105180008083808182608083808181608083808150
:10519000806880831092C10008958E3008F08E5090
:1051A00020913F0190E4299F900111248770822B68
:1051B00080937C0080917A00806480937A00809153
:1051C0007A0086FDFCCF8091780090917900089557
:1051D000833081F028F4813099F08230A9F008956D
:1051E0008730A9F08830C9F08430B1F48091800014
:1051F0008F7D03C0809180008F7780938000089519
:1052000084B58F7784BD089584B58F7DFBCF809161
:10521000B0008F778093B00008958091B0008F7DAB
:10522000F9CFCF93DF9390E0FC01E458FF4F249136
:1052300080579F4FFC0184918823C9F090E0880F2C
:10524000991FFC01E255FF4FA591B491FC01EC556B
:10525000FF4FC591D49161110DC09FB7F8948C9107
:10526000209582238C938881282328839FBFDF91F8
:10527000CF910895623051F49FB7F8943C91822FFA
:10528000809583238C93E8812E2BEFCF8FB7F894F2
:10529000EC912E2B2C938FBFEACF1F93CF93DF93EC
:1052A000282F30E0F901E859FF4F8491F901E458C3
:1052B000FF4FD491F901E057FF4FC491CC23A1F0E7
:1052C000162F811185DFEC2FF0E0EE0FFF1FEC555C
:1052D000FF4FA591B4918FB7F894EC91111108C0CC
:1052E000D095DE23DC938FBFDF91CF911F9108957E
:1052F000DE2BF8CFFC01918D228D892F90E0805C10
:105300009F4F821B91098F7399270895FC01918DFE
:10531000828D981731F0828DE80FF11D858D90E018
:1053200008958FEF9FEF0895FC01918D828D98175E
:1053300061F0A28DAE0FBF2FB11D5D968C91928D45
:105340009F5F9F73928F90E008958FEF9FEF089576
:10535000FC01538D448D252F30E0842F90E0821B7B
:10536000930B541710F0CF96089501970895FC0100
:10537000A48DA80FB92FB11DA35ABF4F2C91848DB6
:1053800090E001968F739927848FA689B7892C9313
:10539000A089B1898C91837080648C93938D848D66
:1053A000981306C00288F389E02D80818F7D808369
:1053B0000895CF93DF93EC01888D8823B1F0AA89FB
:1053C000BB89E889F9898C9185FD03C0808186FDC0
:1053D0000CC00FB607FCF7CF8C9185FFF2CF808110
:1053E00085FFEDCFCE01C3DFEACFDF91CF910895E6
:1053F000EF92FF920F931F93CF93DF93EC0181E025
:10540000888F9B8D8C8D98131AC0E889F9898081CB
:1054100085FF15C09FB7F894EE89FF896083E889FE
:10542000F98980818370806480839FBF81E090E0F0
:10543000DF91CF911F910F91FF90EF900895F62E7D
:105440000B8D10E00F5F1F4F0F731127E02E8C8D17
:105450008E110BC00FB607FCFACFE889F98980815D
:1054600085FFF5CFCE0183DFF2CFEB8DEC0FFD2F63
:10547000F11DE35AFF4FF0829FB7F8940B8FEA8932
:10548000FB8980818062D0CFCF92DF92EF92FF9232
:105490001F93CF93DF93EC016A017B01122FE88900
:1054A000F98982E08083C11481EED806E104F10419
:1054B00099F060E079E08DE390E0A70196010AD1D0
:1054C000215031094109510956954795379527953E
:1054D000211580E1380790F0E889F989108260E8A9
:1054E00074E88EE190E0A7019601F4D021503109D3
:1054F000410951095695479537952795EC85FD85C6
:105500003083EE85FF852083188EEC89FD8910831A
:10551000EA89FB89808180618083EA89FB898081B7
:1055200088608083EA89FB89808180688083EA893A
:10553000FB8980818F7D8083DF91CF911F91FF90C8
:10554000EF90DF90CF9008951F920F920FB60F92B9
:1055500011242F938F939F93EF93FF93E09158041F
:10556000F09159048081E0915E04F0915F0482FD26
:105570001BC09081809161048F5F8F7320916204C2
:10558000821741F0E0916104F0E0E85BFB4F958FFA
:1055900080936104FF91EF919F918F912F910F90D4
:1055A0000FBE0F901F9018958081F4CF1F920F921D
:1055B0000FB60F9211242F933F934F935F936F93E6
:1055C0007F938F939F93AF93BF93EF93FF9388E461
:1055D00094E0CDDEFF91EF91BF91AF919F918F91BC
:1055E0007F916F915F914F913F912F910F900FBEDF
:1055F0000F901F901895E8E4F4E01382128288EE71
:1056000093E0A0E0B0E084839583A683B78385EC24
:1056100091E09183808385EC90E09587848784EC8A
:1056200090E09787868780EC90E0918B808B81EC6F
:1056300090E0938B828B82EC90E0958B848B86EC50
:1056400090E0978B868B118E128E138E148E089598
:10565000AF92BF92CF92DF92EF92FF920F931F9380
:10566000CF93DF936C017B018B01040F151FEB01BE
:105670005E01AE18BF08C017D10759F06991D60175
:10568000ED91FC910190F081E02DC6010995892BE7
:1056900079F7C501DF91CF911F910F91FF90EF90A6
:1056A000DF90CF90BF90AF9008950895AA1BBB1BC9
:1056B00051E107C0AA1FBB1FA617B70710F0A61B12
:1056C000B70B881F991F5A95A9F780959095BC0133
:1056D000CD010895A1E21A2EAA1BBB1BFD010DC02E
:1056E000AA1FBB1FEE1FFF1FA217B307E407F50792
:1056F00020F0A21BB30BE40BF50B661F771F881F6E
:10570000991F1A9469F760957095809590959B0103
:10571000AC01BD01CF010895EE0FFF1F0590F4917C
:10572000E02D0994A29FB001B39FC001A39F700D0B
:10573000811D1124911DB29F700D811D1124911D99
:105740000895F0DFA59F900DB49F900DA49F800D4C
:10575000911D11240895FB01DC0102C001900D92FE
:1057600041505040D8F70895DC0101C06D9341507D
:0A5770005040E0F70895F894FFCFD1
:10577A00000080BF0000803F00007A440000FA4326
:10578A000000000000A0FEFFFFFF01E8030000FF89
:10579A00FF00000000FFFFFFFFFFFFFFFFFFFF0109
:1057AA000001000100200038000800FFFFFFFF0190
:1057BA0001F301FF00570E830EFE003D0EBE0BFDE6
:1057CA0000CF0D290EFC00150EBE0BF600060FBE0B
:1057DA000BF500DC0D450FF400CF0E5C0FDE0082E6
:1057EA00131B16DD00F114BE0BDA002C113411D98B
:1057FA000036164411E2001410BE0BE1004F10BE31
:10580A000BE000C410BE0BD6001A1ABE0BD500D18D
:10581A0012BE0BD4005D12BE0BD300CE11BE0BC05C
:10582A00005311BE0BF000831ABE0BED00401ABEE6
:10583A000B00000000F829282BA829D9297A2994D5
:04584A002986290082
:00000001FF
